{
  "address": "0x25887538Ccd4D25E241a6aFa96b9C2571e327f8f",
  "abi": [
    {
      "inputs": [
        {
          "internalType": "address",
          "name": "target",
          "type": "address"
        }
      ],
      "name": "AddressEmptyCode",
      "type": "error"
    },
    {
      "inputs": [
        {
          "internalType": "address",
          "name": "account",
          "type": "address"
        }
      ],
      "name": "AddressInsufficientBalance",
      "type": "error"
    },
    {
      "inputs": [],
      "name": "FailedInnerCall",
      "type": "error"
    },
    {
      "inputs": [],
      "name": "InvalidInitialization",
      "type": "error"
    },
    {
      "inputs": [],
      "name": "NotInitializing",
      "type": "error"
    },
    {
      "inputs": [],
      "name": "ReentrancyGuardReentrantCall",
      "type": "error"
    },
    {
      "inputs": [
        {
          "internalType": "address",
          "name": "token",
          "type": "address"
        }
      ],
      "name": "SafeERC20FailedOperation",
      "type": "error"
    },
    {
      "anonymous": false,
      "inputs": [
        {
          "indexed": false,
          "internalType": "uint64",
          "name": "version",
          "type": "uint64"
        }
      ],
      "name": "Initialized",
      "type": "event"
    },
    {
      "anonymous": false,
      "inputs": [
        {
          "indexed": false,
          "internalType": "address",
          "name": "token",
          "type": "address"
        },
        {
          "indexed": false,
          "internalType": "address[]",
          "name": "addresses",
          "type": "address[]"
        },
        {
          "indexed": false,
          "internalType": "uint256[]",
          "name": "amounts",
          "type": "uint256[]"
        }
      ],
      "name": "MultisendERC20",
      "type": "event"
    },
    {
      "anonymous": false,
      "inputs": [
        {
          "indexed": false,
          "internalType": "address",
          "name": "_nft",
          "type": "address"
        },
        {
          "indexed": false,
          "internalType": "address[]",
          "name": "addresses",
          "type": "address[]"
        },
        {
          "indexed": false,
          "internalType": "uint256[]",
          "name": "tokenIds",
          "type": "uint256[]"
        }
      ],
      "name": "MultisendERC721",
      "type": "event"
    },
    {
      "anonymous": false,
      "inputs": [
        {
          "indexed": false,
          "internalType": "address[]",
          "name": "addresses",
          "type": "address[]"
        },
        {
          "indexed": false,
          "internalType": "uint256[]",
          "name": "amounts",
          "type": "uint256[]"
        }
      ],
      "name": "MultisendETH",
      "type": "event"
    },
    {
      "inputs": [],
      "name": "initialize",
      "outputs": [],
      "stateMutability": "nonpayable",
      "type": "function"
    },
    {
      "inputs": [
        {
          "internalType": "address",
          "name": "_token",
          "type": "address"
        },
        {
          "internalType": "address[]",
          "name": "_addresses",
          "type": "address[]"
        },
        {
          "internalType": "uint256[]",
          "name": "_amounts",
          "type": "uint256[]"
        },
        {
          "internalType": "uint256",
          "name": "_totalAmount",
          "type": "uint256"
        }
      ],
      "name": "multisendERC20",
      "outputs": [],
      "stateMutability": "nonpayable",
      "type": "function"
    },
    {
      "inputs": [
        {
          "internalType": "address",
          "name": "_nft",
          "type": "address"
        },
        {
          "internalType": "address[]",
          "name": "_addresses",
          "type": "address[]"
        },
        {
          "internalType": "uint256[]",
          "name": "_tokenIds",
          "type": "uint256[]"
        }
      ],
      "name": "multisendERC721",
      "outputs": [],
      "stateMutability": "nonpayable",
      "type": "function"
    },
    {
      "inputs": [
        {
          "internalType": "address[]",
          "name": "_addresses",
          "type": "address[]"
        },
        {
          "internalType": "uint256[]",
          "name": "_amounts",
          "type": "uint256[]"
        }
      ],
      "name": "multisendETH",
      "outputs": [],
      "stateMutability": "payable",
      "type": "function"
    }
  ],
  "transactionHash": "0x0c88cfd43d38a969d63081797dcbf570a18e5fb856d3fcd7bdfe5a8a936ff748",
  "args": [],
  "numDeployments": 2,
  "solcInputHash": "a27dab8eb526667a7267ebcc92a3665d",
  "bytecode": "0x608060405234801561001057600080fd5b50610c4a806100206000396000f3fe60806040526004361061003f5760003560e01c806308c89f7e146100445780638129fc1c14610066578063b1e242e81461007b578063bfbe346a1461009b575b600080fd5b34801561005057600080fd5b5061006461005f3660046108dd565b6100ae565b005b34801561007257600080fd5b5061006461020b565b34801561008757600080fd5b5061006461009636600461095e565b610318565b6100646100a93660046109e7565b610422565b6100b661058f565b8281146100de5760405162461bcd60e51b81526004016100d590610a53565b60405180910390fd5b60005b838110156101ad57856001600160a01b03166342842e0e3387878581811061010b5761010b610a83565b90506020020160208101906101209190610a99565b86868681811061013257610132610a83565b6040516001600160e01b031960e088901b1681526001600160a01b03958616600482015294909316602485015250602090910201356044820152606401600060405180830381600087803b15801561018957600080fd5b505af115801561019d573d6000803e3d6000fd5b5050600190920191506100e19050565b507f339734fd5b12e03589925b0d681299ea3f8a326bc1de4743d6fcc79748076e1785858585856040516101e5959493929190610b2d565b60405180910390a16102046001600080516020610bf583398151915255565b5050505050565b7ff0c57e16840df040f15088dc2f81fe391c3923bec73e23a9662efc9c229c6a008054600160401b810460ff16159067ffffffffffffffff166000811580156102515750825b905060008267ffffffffffffffff16600114801561026e5750303b155b90508115801561027c575080155b1561029a5760405163f92ee8a960e01b815260040160405180910390fd5b845467ffffffffffffffff1916600117855583156102c457845460ff60401b1916600160401b1785555b6102cc6105db565b831561020457845460ff60401b19168555604051600181527fc7f505b2f371ae2175ee4913f4499e1f2633a7b5936321eed1cdaeb6115181d29060200160405180910390a15050505050565b61032061058f565b83821461033f5760405162461bcd60e51b81526004016100d590610a53565b6103546001600160a01b0387163330846105ed565b60005b848110156103c3576103bb86868381811061037457610374610a83565b90506020020160208101906103899190610a99565b85858481811061039b5761039b610a83565b90506020020135896001600160a01b03166106549092919063ffffffff16565b600101610357565b507f0761383c412deec59a7b7231faf6ca4105b8d545140003520824f627fd6ef41186868686866040516103fb959493929190610b2d565b60405180910390a161041a6001600080516020610bf583398151915255565b505050505050565b61042a61058f565b8281146104495760405162461bcd60e51b81526004016100d590610a53565b60005b8381101561053457600085858381811061046857610468610a83565b905060200201602081019061047d9190610a99565b6001600160a01b031684848481811061049857610498610a83565b9050602002013560405160006040518083038185875af1925050503d80600081146104df576040519150601f19603f3d011682016040523d82523d6000602084013e6104e4565b606091505b505090508061052b5760405162461bcd60e51b8152602060048201526013602482015272115512081d1c985b9cd9995c8819985a5b1959606a1b60448201526064016100d5565b5060010161044c565b507f78ba36a37abc987179a163cf16263e04d3e940d48916ea8bd86459943fc5dc508484848460405161056a9493929190610b71565b60405180910390a16105896001600080516020610bf583398151915255565b50505050565b600080516020610bf58339815191528054600119016105c157604051633ee5aeb560e01b815260040160405180910390fd5b60029055565b6001600080516020610bf583398151915255565b6105e361068a565b6105eb6106d3565b565b6040516001600160a01b0384811660248301528381166044830152606482018390526105899186918216906323b872dd906084015b604051602081830303815290604052915060e01b6020820180516001600160e01b0383818316178352505050506106db565b6040516001600160a01b0383811660248301526044820183905261068591859182169063a9059cbb90606401610622565b505050565b7ff0c57e16840df040f15088dc2f81fe391c3923bec73e23a9662efc9c229c6a0054600160401b900460ff166105eb57604051631afcd79f60e31b815260040160405180910390fd5b6105c761068a565b60006106f06001600160a01b0384168361073e565b905080516000141580156107155750808060200190518101906107139190610ba3565b155b1561068557604051635274afe760e01b81526001600160a01b03841660048201526024016100d5565b606061074c83836000610753565b9392505050565b6060814710156107785760405163cd78605960e01b81523060048201526024016100d5565b600080856001600160a01b031684866040516107949190610bc5565b60006040518083038185875af1925050503d80600081146107d1576040519150601f19603f3d011682016040523d82523d6000602084013e6107d6565b606091505b50915091506107e68683836107f0565b9695505050505050565b606082610805576108008261084c565b61074c565b815115801561081c57506001600160a01b0384163b155b1561084557604051639996b31560e01b81526001600160a01b03851660048201526024016100d5565b508061074c565b80511561085c5780518082602001fd5b604051630a12f52160e11b815260040160405180910390fd5b80356001600160a01b038116811461088c57600080fd5b919050565b60008083601f8401126108a357600080fd5b50813567ffffffffffffffff8111156108bb57600080fd5b6020830191508360208260051b85010111156108d657600080fd5b9250929050565b6000806000806000606086880312156108f557600080fd5b6108fe86610875565b9450602086013567ffffffffffffffff8082111561091b57600080fd5b61092789838a01610891565b9096509450604088013591508082111561094057600080fd5b5061094d88828901610891565b969995985093965092949392505050565b6000806000806000806080878903121561097757600080fd5b61098087610875565b9550602087013567ffffffffffffffff8082111561099d57600080fd5b6109a98a838b01610891565b909750955060408901359150808211156109c257600080fd5b506109cf89828a01610891565b979a9699509497949695606090950135949350505050565b600080600080604085870312156109fd57600080fd5b843567ffffffffffffffff80821115610a1557600080fd5b610a2188838901610891565b90965094506020870135915080821115610a3a57600080fd5b50610a4787828801610891565b95989497509550505050565b602080825260169082015275082e4e4c2f2e640d8cadccee8d040dad2e6dac2e8c6d60531b604082015260600190565b634e487b7160e01b600052603260045260246000fd5b600060208284031215610aab57600080fd5b61074c82610875565b8183526000602080850194508260005b85811015610af0576001600160a01b03610add83610875565b1687529582019590820190600101610ac4565b509495945050505050565b81835260006001600160fb1b03831115610b1457600080fd5b8260051b80836020870137939093016020019392505050565b6001600160a01b0386168152606060208201819052600090610b529083018688610ab4565b8281036040840152610b65818587610afb565b98975050505050505050565b604081526000610b85604083018688610ab4565b8281036020840152610b98818587610afb565b979650505050505050565b600060208284031215610bb557600080fd5b8151801515811461074c57600080fd5b6000825160005b81811015610be65760208186018101518583015201610bcc565b50600092019182525091905056fe9b779b17422d0df92223018b32b4d1fa46e071723d6817e2486d003becc55f00a2646970667358221220ea48b1ee3e614560dded221ecd900dd54d65b6729b2e81db3230bb97c4af1ddb64736f6c63430008180033",
  "devdoc": {
    "errors": {
      "AddressEmptyCode(address)": [
        {
          "details": "There's no code at `target` (it is not a contract)."
        }
      ],
      "AddressInsufficientBalance(address)": [
        {
          "details": "The ETH balance of the account is not enough to perform the operation."
        }
      ],
      "FailedInnerCall()": [
        {
          "details": "A call to an address target failed. The target may have reverted."
        }
      ],
      "InvalidInitialization()": [
        {
          "details": "The contract is already initialized."
        }
      ],
      "NotInitializing()": [
        {
          "details": "The contract is not initializing."
        }
      ],
      "ReentrancyGuardReentrantCall()": [
        {
          "details": "Unauthorized reentrant call."
        }
      ],
      "SafeERC20FailedOperation(address)": [
        {
          "details": "An operation with an ERC20 token failed."
        }
      ]
    },
    "events": {
      "Initialized(uint64)": {
        "details": "Triggered when the contract has been initialized or reinitialized."
      }
    },
    "kind": "dev",
    "methods": {
      "multisendERC20(address,address[],uint256[],uint256)": {
        "params": {
          "_addresses": "The addresses to Multisend to",
          "_amounts": "The amounts to Multisend",
          "_token": "The address of the ERC20 contract",
          "_totalAmount": "The total amount to Multisend"
        }
      },
      "multisendERC721(address,address[],uint256[])": {
        "params": {
          "_addresses": "The addresses to Multisend to",
          "_nft": "The address of the ERC721 contract",
          "_tokenIds": "The tokenIds to Multisend"
        }
      },
      "multisendETH(address[],uint256[])": {
        "params": {
          "_addresses": "The addresses to Multisend to",
          "_amounts": "The amounts to Multisend"
        }
      }
    },
    "version": 1
  },
  "userdoc": {
    "kind": "user",
    "methods": {
      "multisendERC20(address,address[],uint256[],uint256)": {
        "notice": "Multisend ERC20 tokens to a list of addresses"
      },
      "multisendERC721(address,address[],uint256[])": {
        "notice": "Multisend ERC721 tokens to a list of addresses"
      },
      "multisendETH(address[],uint256[])": {
        "notice": "Multisend ETH to a list of addresses"
      }
    },
    "version": 1
  },
  "storageLayout": {
    "storage": [],
    "types": null
  }
}