{
  "address": "0x18B02000D2bA5E45F27419830576009ADdd0BB82",
  "abi": [
    {
      "inputs": [
        {
          "internalType": "address",
          "name": "_token",
          "type": "address"
        },
        {
          "internalType": "address[]",
          "name": "_addresses",
          "type": "address[]"
        },
        {
          "internalType": "uint256[]",
          "name": "_amounts",
          "type": "uint256[]"
        },
        {
          "internalType": "uint256",
          "name": "_totalAmount",
          "type": "uint256"
        }
      ],
      "name": "multisendERC20",
      "outputs": [],
      "stateMutability": "payable",
      "type": "function"
    },
    {
      "inputs": [
        {
          "internalType": "address",
          "name": "_nft",
          "type": "address"
        },
        {
          "internalType": "address[]",
          "name": "_addresses",
          "type": "address[]"
        },
        {
          "internalType": "uint256[]",
          "name": "_tokenIds",
          "type": "uint256[]"
        }
      ],
      "name": "multisendERC721",
      "outputs": [],
      "stateMutability": "payable",
      "type": "function"
    },
    {
      "inputs": [
        {
          "internalType": "address[]",
          "name": "_addresses",
          "type": "address[]"
        },
        {
          "internalType": "uint256[]",
          "name": "_amounts",
          "type": "uint256[]"
        }
      ],
      "name": "multisendETH",
      "outputs": [],
      "stateMutability": "payable",
      "type": "function"
    }
  ],
  "transactionHash": "0x08ea1a8840b3bf2696ffc487f468ab4d3824696c4b3b473f6a5bb2d46dbe83b3",
  "args": [],
  "numDeployments": 1,
  "solcInputHash": "be11fae09889417ddef9523c6919233a",
  "bytecode": "0x608060405234801561001057600080fd5b506103a8806100206000396000f3fe6080604052600436106100345760003560e01c806308c89f7e14610039578063b1e242e81461004e578063bfbe346a14610061575b600080fd5b61004c6100473660046101fc565b610074565b005b61004c61005c36600461027d565b6100ce565b61004c61006f366004610306565b610150565b82811461008057600080fd5b6323b872dd60e01b600052336004528260051b8401828503855b80356024528181033560445260008060646000808c5af16100ba57600080fd5b60200182811061009a575050505050505050565b8382146100da57600080fd5b6323b872dd60e01b60005233600452306024528060445260008060646000808a5af161010557600080fd5b63a9059cbb60e01b6000528360051b8501838603865b80356004528181033560245260008060646000808d5af161013b57600080fd5b60200182811061011b57505050505050505050565b82811461015c57600080fd5b838360051b81018584035b6000806000808487013587355af161017e57600080fd5b6020830192508282036101675750505050505050565b80356001600160a01b03811681146101ab57600080fd5b919050565b60008083601f8401126101c257600080fd5b50813567ffffffffffffffff8111156101da57600080fd5b6020830191508360208260051b85010111156101f557600080fd5b9250929050565b60008060008060006060868803121561021457600080fd5b61021d86610194565b9450602086013567ffffffffffffffff8082111561023a57600080fd5b61024689838a016101b0565b9096509450604088013591508082111561025f57600080fd5b5061026c888289016101b0565b969995985093965092949392505050565b6000806000806000806080878903121561029657600080fd5b61029f87610194565b9550602087013567ffffffffffffffff808211156102bc57600080fd5b6102c88a838b016101b0565b909750955060408901359150808211156102e157600080fd5b506102ee89828a016101b0565b979a9699509497949695606090950135949350505050565b6000806000806040858703121561031c57600080fd5b843567ffffffffffffffff8082111561033457600080fd5b610340888389016101b0565b9096509450602087013591508082111561035957600080fd5b50610366878288016101b0565b9598949750955050505056fea26469706673582212200a132697d3799951ab653a0d95c71b464d63b326157a15825769d91e0d6c45e164736f6c63430008180033",
  "devdoc": {
    "kind": "dev",
    "methods": {
      "multisendERC20(address,address[],uint256[],uint256)": {
        "params": {
          "_addresses": "The addresses to Multisend to",
          "_amounts": "The amounts to Multisend",
          "_token": "The address of the ERC20 contract",
          "_totalAmount": "The total amount to Multisend"
        }
      },
      "multisendERC721(address,address[],uint256[])": {
        "params": {
          "_addresses": "The addresses to Multisend to",
          "_nft": "The address of the ERC721 contract",
          "_tokenIds": "The tokenIds to Multisend"
        }
      },
      "multisendETH(address[],uint256[])": {
        "params": {
          "_addresses": "The addresses to Multisend to",
          "_amounts": "The amounts to Multisend"
        }
      }
    },
    "version": 1
  },
  "userdoc": {
    "kind": "user",
    "methods": {
      "multisendERC20(address,address[],uint256[],uint256)": {
        "notice": "Multisend ERC20 tokens to a list of addresses"
      },
      "multisendERC721(address,address[],uint256[])": {
        "notice": "Multisend ERC721 tokens to a list of addresses"
      },
      "multisendETH(address[],uint256[])": {
        "notice": "Multisend ETH to a list of addresses"
      }
    },
    "version": 1
  },
  "storageLayout": {
    "storage": [],
    "types": null
  }
}